:100000000C945A000C9464000C9464000C946400EA
:100010000C9464000C9464000C9464000C946400D0
:100020000C9464000C9464000C9464000C946400C0
:100030000C9464000C9464000C9464000C946400B0
:100040000C9464000C9464000C9464000C946400A0
:100050000C9464000C9464000C9464000C94640090
:100060000C9464000C9464000C9464000C94640080
:100070000C9464000C9464000C9464000C94640070
:100080000C9464000C9464000C9464000C94640060
:100090000C9464000C9464000C9464000C94640050
:1000A0000C9464000C9464000C9464000C94640040
:1000B0000C94640011241FBECFEFD8E0DEBFCDBF8B
:1000C0000E9477000C9484000C94000098E007C014
:1000D0002C9A2B9A00002B988695915021F080FD48
:1000E000F7CF2C98F6CF2D9A00002D980895249ADA
:1000F000239A259A229A219A209A2A98299A28980E
:0C01000080E00E946600FFCFF894FFCF63
:00000001FF
