:100000000C9464000C9481000C9481000C94810089
:100010000C9481000C9481000C9481000C9481005C
:100020000C9481000C9481000C9481000C94FF00CE
:100030000C9440010C9481000C9483000C9481007A
:100040000C9481000C9481000C9481000C9481002C
:100050000C9481000C9481000C9481000C9481001C
:100060000C9443040C9481000C9481000C94810046
:100070000C9481000C9481000C9481000C948100FC
:100080000C9481000C9469010C94AA010C948100D9
:100090000C9481000C9481000C9481000C948100DC
:1000A0000C9481000C9481000C94D3010C94DE011B
:1000B0000C948100FC84D9D5A5757DC4FDF5F6C0EE
:1000C0006EEAD8BABEE0FEFA11241FBECFEFD8E028
:1000D000DEBFCDBF11E0A0E0B1E0E4E2FCE002C091
:1000E00005900D92A630B107D9F721E0A6E0B1E066
:1000F00001C01D92A834B207E1F70E94E9010C94F7
:1001000010060C9400001F920F920FB60F9211244C
:100110008F939F932A982998289880910C01823078
:1001200009F459C008F43CC0833059F1883111F406
:1001300010920C0180910C018F5F80930C018091D3
:10014000170190911801019690931801809317015F
:10015000809115019091160101969093160180935C
:100160001501809111019091120101969093120155
:10017000809311019F918F910F900FBE0F901F9050
:1001800018959091000188E007C02C9A2B9A0000E6
:100190002B9896958150D1F090FDF7CF2C98F6CF03
:1001A000813041F69091020188E007C02C9A2B9A89
:1001B00000002B989695815021F090FDF7CF2C9858
:1001C000F6CF2D9A00002D982A9AB4CF2D9A0000D0
:1001D0002D98289AAFCF9091010188E007C02C9A02
:1001E0002B9A00002B989695815021F090FDF7CF27
:1001F0002C98F6CF2D9A00002D98299A9BCF1F920C
:100200000F920FB60F9211248F939F9380910A0142
:1002100090910B0197FD1DC080910A0190910B01F7
:10022000181619067CF480910A0190910B0197FD34
:1002300025C05C9880910A0190910B01181619064F
:10024000ACF45D9A9F918F910F900FBE0F901F900D
:10025000189580910A0190910B0197FFF3CF80913F
:100260000A0190910B0197FFE4CF08C05D989F9120
:100270008F910F900FBE0F901F9018955C9ADACF58
:100280001F920F920FB60F9211242F938F939F936B
:1002900080910A0190910B0197FD11C080910A0194
:1002A00090910B018F3F910514F45C9A5D9A9F9198
:1002B0008F912F910F900FBE0F901F9018958091E6
:1002C0000A0190910B0182309F4F8CF35C9A5D9AEA
:1002D000EECF1F920F920FB60F9211248F939F9320
:1002E000809108019091090197FD1DC0809108013E
:1002F00090910901181619067CF4809108019091DB
:10030000090197FD25C05E9880910801909109012F
:1003100018161906ACF45F9A9F918F910F900FBE3B
:100320000F901F901895809108019091090197FFF7
:10033000F3CF809108019091090197FFE4CF08C0A5
:100340005F989F918F910F900FBE0F901F901895FF
:100350005E9ADACF1F920F920FB60F9211242F934D
:100360008F939F93809108019091090197FD11C08F
:1003700080910801909109018F3F910514F45E9AD4
:100380005F9A9F918F912F910F900FBE0F901F90AA
:100390001895809108019091090182309F4F8CF34C
:1003A0005E9A5F9AEECF1F920F920FB60F921124B2
:1003B0002E9A0F900FBE0F901F9018951F920F92BC
:1003C0000FB60F9211242E980F900FBE0F901F9012
:1003D0001895CF93DF9300D0CDB7DEB7249A239A38
:1003E000259A229A219A209A549A559A569A579A5F
:1003F000269A429A0E94310580916400809364009D
:1004000080EC80937C0080917C00806280937C00F3
:1004100080917C00836080937C0086E080937A00EA
:1004200090917A00906C90937A0092E094BD23E0D2
:1004300025BD90936E0090E897BD48E04093810001
:100440009091810093609093810080936F0026EEDD
:1004500031E0309389002093880010928B00109235
:100460008A00409391009091910093609093910045
:1004700080937100309399002093980010929B0014
:1004800010929A00789480910A0190910B01A091AA
:100490000A01B0910B0197FF03C0B195A195B10975
:1004A00026EE31E00E94F5052FEF30E040E050E00D
:1004B0000E94BE0530938B0020938A008091080132
:1004C00090910901A0910801B091090197FF03C023
:1004D000B195A195B10926EE31E00E94F5052FEF07
:1004E00030E040E050E00E94BE0530939B00209336
:1004F0009A00A0910601B0910701A350BD4F26EFCD
:1005000039E00E94F50528ED37E240E050E00E9416
:10051000BE053093AB002093AA0080917A008064DE
:1005200080937A0080917A0084FFFCCF80917A00DA
:10053000806180937A002091790080917800322F39
:10054000282FA3EEB1E10E94E60596958795929536
:1005500082958F7089279F70892790934701809398
:10056000460100914601109147019801ADECBCECA9
:100570000E94E605AC0156954795569547955695C8
:1005800047959A01220F331F220F331F240F351F67
:10059000220F331FF801E21BF30BE254FF4F94913B
:1005A0009095909302017AE0E72EF12CCA01B701F1
:1005B0000E94AA058C549F4FFC01849180958093E2
:1005C000010198013695279536952795ABE7B4E15B
:1005D0000E94E60596958795B7010E94AA058C545E
:1005E0009F4FFC01849180958093000180E2898374
:1005F0008FE48A8362E0CE0101960E943B05A2EC63
:100600008A2EA0E09A2EB9EBEB2EB0E0FB2E18E27A
:10061000312E08EEA02E03E0B02E22242A948AE088
:10062000C82ED12C412C512C32014A9451C08091BA
:10063000110190911201C39720F0809104018093E1
:1006400003018091150190911601893E924108F0B5
:1006500058C032990EC0F4018491809580930201B4
:10066000F701849180958093010184918095809316
:10067000000180910A0190910B01A0910A01B091B3
:100680000B0197FF03C0B195A195B10926EE31E0AA
:100690000E94F505A30192010E94BE0530938B00D4
:1006A00020938A008091080190910901A09108018E
:1006B000B091090197FDDDC026EE31E00E94F505FD
:1006C000A30192010E94BE0530939B0020939A00E3
:1006D0008091170190911801069708F07BC09091C6
:1006E0000301809104019813A2CF1092120110927D
:1006F00011018091150190911601893E924108F4F3
:10070000A8CF80917A00806480937A0080917A00EB
:1007100084FFFCCF80917A00806180937A002091E1
:10072000790080917800322F282FA3EEB1E10E944A
:10073000E60596958795929582958F7089279F708B
:1007400089279093470180934601009146011091BB
:1007500047019801ADECBCEC0E94E60596958795A3
:1007600096958795969587959C01220F331F220FAA
:10077000331F280F391F220F331FF801E21BF30B21
:10078000E254FF4FE491E095E0930201B6010E942C
:10079000AA05FC01EC54FF4FE491E095E0930101C0
:1007A00098013695279536952795ABE7B4E10E94D9
:1007B000E60596958795B6010E94AA05FC01EC54C2
:1007C000FF4FE491E095E093000110921601109222
:1007D00015013FCF109218011092170130921A01A3
:1007E00061E08AE191E00E943B0566E080E491E0EF
:1007F0000E947105809140019091410180914201D8
:1008000090914301E0914401F0914501B5010E94AE
:10081000AA059B01220F331F260F371F220F331FFC
:10082000220F331FCF01B5010E94AA0547EF4603EF
:10083000C001479F900D1124B901680F791F77FF00
:1008400002C0615F7F4F7595679575956795759542
:1008500067957595679560931901809119018F3F90
:1008600064F08091190182305CF081E08093040192
:1008700036CFB195A195B1091FCF209204012FCF9A
:10088000109204012CCF1F920F920FB60F921124D9
:100890008F93EF93FF93E091B900E87FE850E13543
:1008A00058F085E88093BC00FF91EF918F910F90F5
:1008B0000FBE0F901F901895F0E0EF59FB4F0C946E
:1008C000E0050A0551045104510451045104510436
:1008D00051040A05510451045104510451045104B6
:1008E0005104170551045104510451045104510499
:1008F0005104B204510451045104510451045104EF
:100900005104170551045104510451045104510478
:100910005104B204510451045104510451045104CE
:10092000510451045104510451045104510451041F
:100930005104DB0451045104510451045104510485
:100940005104B4045104510451045104510451049C
:100950005104C90451045104510451045104510477
:100960005104EB0410923E0185E98093BC00809114
:100970003F01816080933F0180913F018D7F809393
:100980003F01FF91EF918F910F900FBE0F901F903D
:100990001895E0913B01F0E08091BB00E55EFE4FD1
:1009A000808380913B018F5F80933B0180913D016B
:1009B000815080933D0180913D01813009F471CFD8
:1009C00085EC8093BC00FF91EF918F910F900FBE4B
:1009D0000F901F901895E0913B01F0E08091BB00D3
:1009E000E55EFE4F808310923D018091BC008061E6
:1009F0008093BC0085E98093BC0080913F018D7F8E
:100A000080933F01FF91EF918F910F900FBE0F9058
:100A10001F9018958CE38093BB0080913F0182FF6B
:100A200040CF8091BB0081608093BB003ACF809122
:100A30003E018823F9F2E0913C01F0E0E55DFE4FD4
:100A400080818093BB0085E88093BC0080913E014B
:100A5000815080933E0180913C018F5F80933C01E7
:100A600023CF85E08093BC0088E48093B80081E0C8
:100A70008093B9000895362F613108F030E1662384
:100A800059F0FC0190E080E02191DC01A55DBE4FB2
:100A90002C9301968317C0F330933E0110923C01D2
:100AA00080913F01826080933F0180913F018B7F65
:100AB00080933F0180913F018E7F80933F0185EAC3
:100AC0008093BC0080913F0181FDFCCF8FEC97E0CB
:100AD0000197F1F700C0000080913F01809581707F
:100AE0000895362F613108F030E130933D011092C6
:100AF0003B0120913F01226020933F0120913F0163
:100B0000246020933F0120913F012E7F20933F01DD
:100B100025EA2093BC0020913F0121FDFCCFEFECA2
:100B2000F7E03197F1F700C0000020913F0120FD70
:100B30000FC0FC0190E080E0662341F0DC01A55E7F
:100B4000BE4F2C91219301968317C0F381E0089545
:100B500080E0089597FB072E16F4009407D077FDE8
:100B600009D00E94FC0507FC05D03EF490958195C4
:100B70009F4F0895709561957F4F0895A1E21A2EB9
:100B8000AA1BBB1BFD010DC0AA1FBB1FEE1FFF1F31
:100B9000A217B307E407F50720F0A21BB30BE40B81
:100BA000F50B661F771F881F991F1A9469F76095C8
:100BB0007095809590959B01AC01BD01CF01089582
:100BC000EE0FFF1F0590F491E02D0994A29FB00154
:100BD000B39FC001A39F700D811D1124911DB29F71
:100BE000700D811D1124911D08950E94E605B7FF27
:100BF0000895821B930B0895AA1BBB1B51E107C0EC
:100C0000AA1FBB1FA617B70710F0A61BB70B881F9C
:100C1000991F5A95A9F780959095BC01CD0108952B
:040C2000F894FFCF76
:060C2400FFFFFF010100CB
:00000001FF
