:100000000C9464000C9481000C9481000C94810089
:100010000C9481000C9481000C9481000C9481005C
:100020000C9481000C9481000C9481000C9481004C
:100030000C9481000C9481000C9483000C9481003A
:100040000C9481000C9481000C9481000C9481002C
:100050000C9481000C9481000C9481000C9481001C
:100060000C9481000C9481000C9481000C9481000C
:100070000C9481000C9481000C9481000C948100FC
:100080000C9481000C9481000C9481000C948100EC
:100090000C9481000C9481000C9481000C948100DC
:1000A0000C9481000C9481000C9481000C948100CC
:1000B0000C948100FC84D9D5A5757DC4FDF5F6C0EE
:1000C0006EEAD8BABEE0FEFA11241FBECFEFD8E028
:1000D000DEBFCDBF11E0A0E0B1E0EAE1F2E002C096
:1000E00005900D92A430B107D9F721E0A4E0B1E06A
:1000F00001C01D92A530B207E1F70E94E9000C94FF
:100100000B010C9400001F920F920FB60F92112456
:100110008F939F932A982998289880910401823080
:1001200009F447C028F1833061F08831F9F481E0A7
:10013000809304019F918F910F900FBE0F901F909D
:1001400018959091000188E007C02C9A2B9A000026
:100150002B989695815029F190FDF7CF2C98F6CFEA
:100160002D9A00002D98299A809104018F5FE0CF8D
:100170008130E1F79091020188E007C02C9A2B9A18
:1001800000002B989695815021F090FDF7CF2C9888
:10019000F6CF2D9A00002D982A9A809104018F5F46
:1001A000C7CF2D9A00002D98289A809104018F5F67
:1001B000BFCF9091010188E008C02C9A2B9A0000D3
:1001C0002B989695815009F4CBCF90FDF6CF2C98C3
:1001D000F5CF249A239A259A229A219A209A82E08E
:1001E00084BD93E095BD80936E0080E887BD7894D0
:1001F000E3ECF0E08491809580930201E8EBF0E07D
:100200008491809580930101E7EBF0E084918095E3
:0A02100080930001FFCFF894FFCFA8
:04021A00FFFFFF00E3
:00000001FF
