:100000000C9464000C9481000C9481000C94810089
:100010000C9481000C9481000C9481000C9481005C
:100020000C9481000C940C020C9481000C944B01F4
:100030000C9481000C9481000C94F9000C94220122
:100040000C9483000C9481000C9481000C9481002A
:100050000C9481000C9481000C9481000C9481001C
:100060000C9493050C9481000C9481000C948100F5
:100070000C9481000C9481000C9481000C948100FC
:100080000C9481000C9481000C9481000C948100EC
:100090000C9481000C9481000C9481000C948100DC
:1000A0000C9481000C9481000C94C7020C94D8022B
:1000B0000C948100FC84D9D5A5757DC4FDF5F6C0EE
:1000C0006EEAD8BABEE0FEFA11241FBECFEFD8E028
:1000D000DEBFCDBF11E0A0E0B1E0E4ECFEE002C085
:1000E00005900D92A630B107D9F721E0A6E0B1E066
:1000F00001C01D92AC35B207E1F70E94E3020C94F7
:1001000060070C9400001F920F920FB60F921124FB
:100110008F939F93809114019091150197FD3AC0A0
:1001200080911401909115011816190684F480919C
:1001300014019091150197FD51C05C9880911401B4
:1001400090911501181619060CF051C05D9A809116
:1001500012019091130197FD2AC080911201909194
:100160001301181619067CF4809112019091130165
:1001700097FD32C05E98809112019091130118167C
:10018000190614F55F9A9F918F910F900FBE0F90F3
:100190001F901895809114019091150197FFD7CF6A
:1001A000809114019091150197FFC7CF17C08091DE
:1001B00012019091130197FFE6CF80911201909167
:1001C000130197FFD7CF08C05F989F918F910F9031
:1001D0000FBE0F901F9018955E9ACDCF5C9A8091BC
:1001E000140190911501181619060CF4AFCF5D9803
:1001F000AECF1F920F920FB60F9211242F938F93B1
:100200009F93809114019091150197FD11C08091E9
:100210001401909115018F3F910514F45C9A5D9A39
:100220009F918F912F910F900FBE0F901F90189557
:10023000809114019091150182309F4F8CF35C9A4C
:100240005D9AEECF1F920F920FB60F9211242F934B
:100250008F939F93809112019091130197FD11C08C
:1002600080911201909113018F3F910514F45E9AD1
:100270005F9A9F918F912F910F900FBE0F901F90BB
:100280001895809112019091130182309F4F8CF349
:100290005E9A5F9AEECF1F920F920FB60F921124C3
:1002A0008F939F932A9829982898809116018230DD
:1002B00009F49EC008F480C0833009F455C0883129
:1002C00011F410921601809116018F5F8093160130
:1002D00080912301909124010196909324018093B1
:1002E0002301809121019091220101969093220196
:1002F0008093210180911D0190911E0101969093A0
:100300001E0180931D018091580190915901891B14
:10031000990B909309018093080180915A01909163
:100320005B01891B990B90930701809306018091D3
:1003300014019091150197FD26C0809114019091B0
:10034000150187BD809112019091130197FD27C07F
:10035000809112019091130188BD9F918F910F9010
:100360000FBE0F901F9018959091010188E007C073
:100370002C9A2B9A00002B9896958150A1F190FD14
:10038000F7CF2C98F6CF80911401909115018195AB
:1003900087BD809112019091130197FFD9CF809171
:1003A000120190911301819588BD9F918F910F90BB
:1003B0000FBE0F901F901895813009F084CF909157
:1003C000030188E007C02C9A2B9A00002B98969581
:1003D000815021F090FDF7CF2C98F6CF2D9A000098
:1003E0002D982A9A70CF2D9A00002D98289A6BCFBD
:1003F0009091020188E007C02C9A2B9A00002B985C
:100400009695815021F090FDF7CF2C98F6CF2D9A3C
:1004100000002D98299A57CF1F920F920FB60F9276
:1004200011242F933F934F935F936F937F938F93F9
:100430009F93AF93BF93CF93DF93EF93FF9360911D
:100440000F016F5F60930F0120910D0130910E013C
:100450002F5F3F4F30930E0120930D0189B18170C2
:1004600090915401890F8093540199B196959170A0
:1004700070915501970F9093550199B192FB99276F
:1004800090F970915601970F9093560199B193FB93
:10049000992790F970915701970F909357019CB14C
:1004A000492F417050E0E0910B01F0910C014E0F8B
:1004B0005F1F50930C0140930B016F3020F1E8E572
:1004C000F1E0A4E5B1E0CCE5D1E061E1869FC001B7
:1004D00011248F3F910519F014F08FEF90E0819374
:1004E0001D92CE17DF0769F08C91869FC001112401
:1004F0008F3F910509F08CF781931D92CE17DF078E
:1005000099F710920F01223E3440C0F0CA0196952F
:1005100087958033910528F580E080930A0181E07A
:100520004832510508F080E08093000110920C01E0
:1005300010920B0110920E0110920D01FF91EF919C
:10054000DF91CF91BF91AF919F918F917F916F91EB
:100550005F914F913F912F910F900FBE0F901F9081
:100560001895C0976FEF689F9001699F300D112417
:1005700021158EE0380748F436952795A5E2B9E4B1
:100580000E94360796958795C8CF8FEFC6CF1F92EA
:100590000F920FB60F9211248F9380910001811159
:1005A00001C02E9A8F910F900FBE0F901F9018953B
:1005B0001F920F920FB60F9211242E980F900FBE1C
:1005C0000F901F901895CF93DF9300D0CDB7DEB773
:1005D000249A239A259A229A219A209A549A559AD3
:1005E000569A579A269A429A0E94810680916400F0
:1005F0008093640080EC80937C0080917C0080621A
:1006000080937C0080917C00836080937C0096E0E6
:1006100090937A0080917A00806C80937A0014BC69
:1006200083E085BD87E080936E0017BC18BC28E08E
:10063000209381008091810083608093810082E01B
:1006400080936F0040E850E0509389004093880009
:100650001092B0008093B10081E0809370002093ED
:10066000A1008091A10082608093A100909372000C
:1006700080EB9FE49093A9008093A8001092AB00B8
:100680001092AA0078948091580190915901891B89
:10069000990B909309018093080180915A019091E0
:1006A0005B01891B990B9093070180930601809150
:1006B00014019091150197FD21C280911401909130
:1006C000150187BD809112019091130197FD25C2FC
:1006D000809112019091130188BDA0911001B091F9
:1006E0001101AD50BD4F20EB3FE40E94450728EDBE
:1006F00037E240E050E00E940E073093AB002093B9
:10070000AA0080917A00806480937A0080917A00B8
:1007100084FFFCCF80917A00806180937A002091E1
:10072000790080917800322F282FA3EEB1E10E944A
:10073000360796958795929582958F7089279F7039
:100740008927909353018093520100915201109197
:1007500053019801ADECBCEC0E943607AC015695F4
:10076000479556954795569547959A01220F331F01
:10077000220F331F240F351F220F331FF801E21BF6
:10078000F30BE254FF4F9491909590930301FAE09C
:10079000EF2EF12CCA01B7010E94FA068C549F4F2C
:1007A000FC018491809580930201980136952795EC
:1007B00036952795ABE7B4E10E9436079695879565
:1007C000B7010E94FA068C549F4FFC0184918095DA
:1007D0008093010180E289838FE48A8362E0CE0105
:1007E00001960E948B0618EEC12E13E0D12E05E073
:1007F000802E912C88ED482E87E2582E612C712C8A
:10080000AA24AA9498E2B92E12C080911D01909159
:100810001E01C39720F0809105018093040180910F
:100820002101909122014597C8F4329B81C08091AB
:10083000230190912401069708F0C1C09091040112
:10084000809105019813E1CF10921E0110921D01B5
:100850008091210190912201459738F380917A008F
:10086000806480937A0080917A0084FFFCCF80912D
:100870007A00806180937A002091790080917800DD
:10088000322F282FA3EEB1E10E9436079695879567
:10089000929582958F7089279F7089279093530135
:1008A0008093520100915201109153019801ADECD7
:1008B000BCEC0E94360796958795969587959695F8
:1008C00087959C01220F331F220F331F280F391FDA
:1008D000220F331FF801E21BF30BE254FF4FE491A8
:1008E000E095E0930301B7010E94FA06FC01EC5485
:1008F000FF4FE491E095E09302019801369527952A
:1009000036952795ABE7B4E10E9436079695879513
:10091000B7010E94FA06FC01EC54FF4FE491E09508
:10092000E0930101109222011092210132997FCFB0
:1009300000911701109118019801ADECBCEC0E94D8
:1009400036079695879596958795969587959C01F8
:10095000220F331F220F331F280F391F220F331F7F
:10096000F801E21BF30BE254FF4FE491E095E093B2
:100970000301B7010E94FA06FC01EC54FF4FE49119
:10098000E095E093020198013695279536952795D5
:10099000ABE7B4E10E94360796958795B7010E94B0
:1009A000FA06FC01EC54FF4FE491E095E09301015D
:1009B0008091230190912401069708F43FCF109273
:1009C000240110922301B092260161E086E291E0B9
:1009D0000E948B0666E08CE491E00E94C106809143
:1009E0004C0190914D0180914E0190914F01E09109
:1009F0005001F0915101B6010E94FA069B01220FAD
:100A0000331F260F371F220F331F220F331FCF0133
:100A1000B6010E94FA0647EF4603C001479F900DBA
:100A20001124B901680F791F77FF02C0615F7F4F02
:100A3000759567957595679575956795759567959E
:100A400060932501809125018F3F0CF460C0809157
:100A5000250182300CF45EC081E080930501409155
:100A6000040120910801309109014203C001439F14
:100A7000900D11249093150180931401409104016D
:100A800020910601309107014203C001439F900D60
:100A90001124909313018093120180910A018932ED
:100AA00098F18FE790E020910A012F3B10F08158D8
:100AB0009F4F4091040122273327281B390B420303
:100AC000C001439F900D1124B4010E94FA06709357
:100AD000110160931001A0911001B0911101AD506E
:100AE000BD4F20EB3FE40E944507A30192010E9405
:100AF0000E073093AB002093AA00A0CE8091140182
:100B0000909115018195DDCD90E080E0CCCFA09251
:100B10000501A5CF10920501A2CF809112019091FD
:100B200013018195D9CD1F920F920FB60F92112408
:100B30008F93EF93FF93E091B900E87FE850E135A0
:100B400058F085E88093BC00FF91EF918F910F9052
:100B50000FBE0F901F901895F0E0EF54FA4F0C94D1
:100B600030075A06A105A105A105A105A105A1050A
:100B7000A1055A06A105A105A105A105A105A1058B
:100B8000A1056706A105A105A105A105A105A1056E
:100B9000A1050206A105A105A105A105A105A105C3
:100BA000A1056706A105A105A105A105A105A1054E
:100BB000A1050206A105A105A105A105A105A105A3
:100BC000A105A105A105A105A105A105A105A105F5
:100BD000A1052B06A105A105A105A105A105A1055A
:100BE000A1050406A105A105A105A105A105A10571
:100BF000A1051906A105A105A105A105A105A1054C
:100C0000A1053B0610924A0185E98093BC008091C2
:100C10004B01816080934B0180914B018D7F8093CC
:100C20004B01FF91EF918F910F900FBE0F901F908E
:100C30001895E0914701F0E08091BB00E95DFE4F1F
:100C40008083809147018F5F8093470180914901A4
:100C500081508093490180914901813009F471CF1D
:100C600085EC8093BC00FF91EF918F910F900FBEA8
:100C70000F901F901895E0914701F0E08091BB0024
:100C8000E95DFE4F8083109249018091BC00806134
:100C90008093BC0085E98093BC0080914B018D7FDF
:100CA00080934B01FF91EF918F910F900FBE0F90AA
:100CB0001F9018958CE38093BB0080914B0182FFBD
:100CC00040CF8091BB0081608093BB003ACF809180
:100CD0004A018823F9F2E0914801F0E0E95CFE4F17
:100CE00080818093BB0085E88093BC0080914A019D
:100CF000815080934A01809148018F5F8093480121
:100D000023CF85E08093BC0088E48093B80081E025
:100D10008093B9000895362F613108F030E16623E1
:100D200059F0FC0190E080E02191DC01A95CBE4F0C
:100D30002C9301968317C0F330934A011092480117
:100D400080914B01826080934B0180914B018B7F9E
:100D500080934B0180914B018E7F80934B0185EAFC
:100D60008093BC0080914B0181FDFCCF8FEC97E01C
:100D70000197F1F700C0000080914B0180958170D0
:100D80000895362F613108F030E130934901109217
:100D9000470120914B01226020934B0120914B0190
:100DA000246020934B0120914B012E7F20934B0117
:100DB00025EA2093BC0020914B0121FDFCCFEFECF4
:100DC000F7E03197F1F700C0000020914B0120FDC2
:100DD0000FC0FC0190E080E0662341F0DC01A95DDA
:100DE000BE4F2C91219301968317C0F381E00895A3
:100DF00080E0089597FB072E16F4009407D077FD46
:100E000009D00E944C0707FC05D03EF490958195CF
:100E10009F4F0895709561957F4F0895A1E21A2E16
:100E2000AA1BBB1BFD010DC0AA1FBB1FEE1FFF1F8E
:100E3000A217B307E407F50720F0A21BB30BE40BDE
:100E4000F50B661F771F881F991F1A9469F7609525
:100E50007095809590959B01AC01BD01CF010895DF
:100E6000EE0FFF1F0590F491E02D0994A29FB001B1
:100E7000B39FC001A39F700D811D1124911DB29FCE
:100E8000700D811D1124911D08950E943607B7FF32
:100E90000895821B930B0895AA1BBB1B51E107C049
:100EA000AA1FBB1FA617B70710F0A61BB70B881FFA
:100EB000991F5A95A9F780959095BC01CD01089589
:040EC000F894FFCFD4
:060EC40001FFFFFF010128
:00000001FF
