:100000000C945A000C9464000C9464000C946400EA
:100010000C9464000C9464000C9464000C946400D0
:100020000C9464000C9464000C9464000C946400C0
:100030000C9464000C9464000C9464000C946400B0
:100040000C9464000C9464000C9464000C946400A0
:100050000C9464000C9464000C9464000C94640090
:100060000C9464000C9464000C9464000C94640080
:100070000C9464000C9464000C9464000C94640070
:100080000C9464000C9464000C9464000C94640060
:100090000C9464000C9464000C9464000C94640050
:1000A0000C9464000C9464000C9464000C94640040
:1000B0000C94640011241FBECFEFD8E0DEBFCDBF8B
:1000C0000E947D000C948C000C94000028E009C074
:1000D0002C9A2B9A000095B1987F95B9869521505E
:1000E00031F080FDF5CF95B1907F95B9F2CF2D9A83
:1000F000000085B1807E85B90895249A239A259AB7
:10010000229A219A209A85B18C7F85B9299A289ABA
:0C0110008AE10E946600FFCFF894FFCF48
:00000001FF
